{
  "_format": "hh-sol-artifact-1",
  "contractName": "PepeDoods",
  "sourceName": "contracts/PepeDoods.sol",
  "abi": [
    {
      "inputs": [
        {
          "internalType": "string",
          "name": "__tokenURI",
          "type": "string"
        },
        {
          "internalType": "address payable",
          "name": "_receiver",
          "type": "address"
        },
        {
          "internalType": "uint256",
          "name": "_mintingFee",
          "type": "uint256"
        }
      ],
      "stateMutability": "nonpayable",
      "type": "constructor"
    },
    {
      "anonymous": false,
      "inputs": [
        {
          "indexed": true,
          "internalType": "address",
          "name": "owner",
          "type": "address"
        },
        {
          "indexed": true,
          "internalType": "address",
          "name": "approved",
          "type": "address"
        },
        {
          "indexed": true,
          "internalType": "uint256",
          "name": "tokenId",
          "type": "uint256"
        }
      ],
      "name": "Approval",
      "type": "event"
    },
    {
      "anonymous": false,
      "inputs": [
        {
          "indexed": true,
          "internalType": "address",
          "name": "owner",
          "type": "address"
        },
        {
          "indexed": true,
          "internalType": "address",
          "name": "operator",
          "type": "address"
        },
        {
          "indexed": false,
          "internalType": "bool",
          "name": "approved",
          "type": "bool"
        }
      ],
      "name": "ApprovalForAll",
      "type": "event"
    },
    {
      "anonymous": false,
      "inputs": [
        {
          "indexed": true,
          "internalType": "address",
          "name": "previousOwner",
          "type": "address"
        },
        {
          "indexed": true,
          "internalType": "address",
          "name": "newOwner",
          "type": "address"
        }
      ],
      "name": "OwnershipTransferred",
      "type": "event"
    },
    {
      "anonymous": false,
      "inputs": [
        {
          "indexed": false,
          "internalType": "address",
          "name": "account",
          "type": "address"
        }
      ],
      "name": "Paused",
      "type": "event"
    },
    {
      "anonymous": false,
      "inputs": [
        {
          "indexed": true,
          "internalType": "address",
          "name": "from",
          "type": "address"
        },
        {
          "indexed": true,
          "internalType": "address",
          "name": "to",
          "type": "address"
        },
        {
          "indexed": true,
          "internalType": "uint256",
          "name": "tokenId",
          "type": "uint256"
        }
      ],
      "name": "Transfer",
      "type": "event"
    },
    {
      "anonymous": false,
      "inputs": [
        {
          "indexed": false,
          "internalType": "address",
          "name": "account",
          "type": "address"
        }
      ],
      "name": "Unpaused",
      "type": "event"
    },
    {
      "inputs": [
        {
          "internalType": "address",
          "name": "wallet",
          "type": "address"
        },
        {
          "internalType": "uint256",
          "name": "amount",
          "type": "uint256"
        }
      ],
      "name": "airdrop",
      "outputs": [],
      "stateMutability": "nonpayable",
      "type": "function"
    },
    {
      "inputs": [],
      "name": "allowlist",
      "outputs": [
        {
          "internalType": "bytes32",
          "name": "",
          "type": "bytes32"
        }
      ],
      "stateMutability": "view",
      "type": "function"
    },
    {
      "inputs": [
        {
          "internalType": "address",
          "name": "to",
          "type": "address"
        },
        {
          "internalType": "uint256",
          "name": "tokenId",
          "type": "uint256"
        }
      ],
      "name": "approve",
      "outputs": [],
      "stateMutability": "nonpayable",
      "type": "function"
    },
    {
      "inputs": [
        {
          "internalType": "address",
          "name": "owner",
          "type": "address"
        }
      ],
      "name": "balanceOf",
      "outputs": [
        {
          "internalType": "uint256",
          "name": "",
          "type": "uint256"
        }
      ],
      "stateMutability": "view",
      "type": "function"
    },
    {
      "inputs": [],
      "name": "baseTokenURI",
      "outputs": [
        {
          "internalType": "string",
          "name": "",
          "type": "string"
        }
      ],
      "stateMutability": "view",
      "type": "function"
    },
    {
      "inputs": [],
      "name": "claim",
      "outputs": [],
      "stateMutability": "nonpayable",
      "type": "function"
    },
    {
      "inputs": [
        {
          "internalType": "address",
          "name": "",
          "type": "address"
        }
      ],
      "name": "claimed",
      "outputs": [
        {
          "internalType": "uint256",
          "name": "",
          "type": "uint256"
        }
      ],
      "stateMutability": "view",
      "type": "function"
    },
    {
      "inputs": [
        {
          "internalType": "uint256",
          "name": "tokenId",
          "type": "uint256"
        }
      ],
      "name": "getApproved",
      "outputs": [
        {
          "internalType": "address",
          "name": "",
          "type": "address"
        }
      ],
      "stateMutability": "view",
      "type": "function"
    },
    {
      "inputs": [],
      "name": "goldenlist",
      "outputs": [
        {
          "internalType": "bytes32",
          "name": "",
          "type": "bytes32"
        }
      ],
      "stateMutability": "view",
      "type": "function"
    },
    {
      "inputs": [
        {
          "internalType": "bytes32[]",
          "name": "_proof",
          "type": "bytes32[]"
        },
        {
          "internalType": "address",
          "name": "_address",
          "type": "address"
        }
      ],
      "name": "isAllowed",
      "outputs": [
        {
          "internalType": "bool",
          "name": "",
          "type": "bool"
        }
      ],
      "stateMutability": "view",
      "type": "function"
    },
    {
      "inputs": [
        {
          "internalType": "address",
          "name": "owner",
          "type": "address"
        },
        {
          "internalType": "address",
          "name": "operator",
          "type": "address"
        }
      ],
      "name": "isApprovedForAll",
      "outputs": [
        {
          "internalType": "bool",
          "name": "",
          "type": "bool"
        }
      ],
      "stateMutability": "view",
      "type": "function"
    },
    {
      "inputs": [
        {
          "internalType": "bytes32[]",
          "name": "_proof",
          "type": "bytes32[]"
        },
        {
          "internalType": "address",
          "name": "_address",
          "type": "address"
        }
      ],
      "name": "isGolden",
      "outputs": [
        {
          "internalType": "bool",
          "name": "",
          "type": "bool"
        }
      ],
      "stateMutability": "view",
      "type": "function"
    },
    {
      "inputs": [
        {
          "internalType": "uint256",
          "name": "amount",
          "type": "uint256"
        },
        {
          "internalType": "bytes32[]",
          "name": "_proof",
          "type": "bytes32[]"
        }
      ],
      "name": "mint",
      "outputs": [],
      "stateMutability": "payable",
      "type": "function"
    },
    {
      "inputs": [],
      "name": "name",
      "outputs": [
        {
          "internalType": "string",
          "name": "",
          "type": "string"
        }
      ],
      "stateMutability": "view",
      "type": "function"
    },
    {
      "inputs": [],
      "name": "nextOwnerToExplicitlySet",
      "outputs": [
        {
          "internalType": "uint256",
          "name": "",
          "type": "uint256"
        }
      ],
      "stateMutability": "view",
      "type": "function"
    },
    {
      "inputs": [
        {
          "internalType": "address",
          "name": "owner",
          "type": "address"
        }
      ],
      "name": "owned",
      "outputs": [
        {
          "internalType": "uint256[]",
          "name": "",
          "type": "uint256[]"
        }
      ],
      "stateMutability": "view",
      "type": "function"
    },
    {
      "inputs": [],
      "name": "owner",
      "outputs": [
        {
          "internalType": "address",
          "name": "",
          "type": "address"
        }
      ],
      "stateMutability": "view",
      "type": "function"
    },
    {
      "inputs": [
        {
          "internalType": "uint256",
          "name": "tokenId",
          "type": "uint256"
        }
      ],
      "name": "ownerOf",
      "outputs": [
        {
          "internalType": "address",
          "name": "",
          "type": "address"
        }
      ],
      "stateMutability": "view",
      "type": "function"
    },
    {
      "inputs": [],
      "name": "paused",
      "outputs": [
        {
          "internalType": "bool",
          "name": "",
          "type": "bool"
        }
      ],
      "stateMutability": "view",
      "type": "function"
    },
    {
      "inputs": [],
      "name": "price",
      "outputs": [
        {
          "internalType": "uint256",
          "name": "",
          "type": "uint256"
        }
      ],
      "stateMutability": "view",
      "type": "function"
    },
    {
      "inputs": [],
      "name": "receiver",
      "outputs": [
        {
          "internalType": "address payable",
          "name": "",
          "type": "address"
        }
      ],
      "stateMutability": "view",
      "type": "function"
    },
    {
      "inputs": [],
      "name": "renounceOwnership",
      "outputs": [],
      "stateMutability": "nonpayable",
      "type": "function"
    },
    {
      "inputs": [],
      "name": "requireAllowlist",
      "outputs": [
        {
          "internalType": "bool",
          "name": "",
          "type": "bool"
        }
      ],
      "stateMutability": "view",
      "type": "function"
    },
    {
      "inputs": [
        {
          "internalType": "address",
          "name": "from",
          "type": "address"
        },
        {
          "internalType": "address",
          "name": "to",
          "type": "address"
        },
        {
          "internalType": "uint256",
          "name": "tokenId",
          "type": "uint256"
        }
      ],
      "name": "safeTransferFrom",
      "outputs": [],
      "stateMutability": "nonpayable",
      "type": "function"
    },
    {
      "inputs": [
        {
          "internalType": "address",
          "name": "from",
          "type": "address"
        },
        {
          "internalType": "address",
          "name": "to",
          "type": "address"
        },
        {
          "internalType": "uint256",
          "name": "tokenId",
          "type": "uint256"
        },
        {
          "internalType": "bytes",
          "name": "_data",
          "type": "bytes"
        }
      ],
      "name": "safeTransferFrom",
      "outputs": [],
      "stateMutability": "nonpayable",
      "type": "function"
    },
    {
      "inputs": [
        {
          "internalType": "bytes32",
          "name": "root",
          "type": "bytes32"
        }
      ],
      "name": "setAllowlist",
      "outputs": [],
      "stateMutability": "nonpayable",
      "type": "function"
    },
    {
      "inputs": [
        {
          "internalType": "address",
          "name": "operator",
          "type": "address"
        },
        {
          "internalType": "bool",
          "name": "approved",
          "type": "bool"
        }
      ],
      "name": "setApprovalForAll",
      "outputs": [],
      "stateMutability": "nonpayable",
      "type": "function"
    },
    {
      "inputs": [
        {
          "internalType": "bytes32",
          "name": "root",
          "type": "bytes32"
        }
      ],
      "name": "setGoldenlist",
      "outputs": [],
      "stateMutability": "nonpayable",
      "type": "function"
    },
    {
      "inputs": [
        {
          "internalType": "bool",
          "name": "pause",
          "type": "bool"
        }
      ],
      "name": "setPause",
      "outputs": [],
      "stateMutability": "nonpayable",
      "type": "function"
    },
    {
      "inputs": [
        {
          "internalType": "uint256",
          "name": "amount",
          "type": "uint256"
        }
      ],
      "name": "setPrice",
      "outputs": [],
      "stateMutability": "nonpayable",
      "type": "function"
    },
    {
      "inputs": [
        {
          "internalType": "address payable",
          "name": "_receiver",
          "type": "address"
        }
      ],
      "name": "setReceiver",
      "outputs": [],
      "stateMutability": "nonpayable",
      "type": "function"
    },
    {
      "inputs": [
        {
          "internalType": "string",
          "name": "_uri",
          "type": "string"
        }
      ],
      "name": "setTokenURI",
      "outputs": [],
      "stateMutability": "nonpayable",
      "type": "function"
    },
    {
      "inputs": [
        {
          "internalType": "bytes4",
          "name": "interfaceId",
          "type": "bytes4"
        }
      ],
      "name": "supportsInterface",
      "outputs": [
        {
          "internalType": "bool",
          "name": "",
          "type": "bool"
        }
      ],
      "stateMutability": "view",
      "type": "function"
    },
    {
      "inputs": [],
      "name": "symbol",
      "outputs": [
        {
          "internalType": "string",
          "name": "",
          "type": "string"
        }
      ],
      "stateMutability": "view",
      "type": "function"
    },
    {
      "inputs": [
        {
          "internalType": "uint256",
          "name": "index",
          "type": "uint256"
        }
      ],
      "name": "tokenByIndex",
      "outputs": [
        {
          "internalType": "uint256",
          "name": "",
          "type": "uint256"
        }
      ],
      "stateMutability": "view",
      "type": "function"
    },
    {
      "inputs": [
        {
          "internalType": "address",
          "name": "owner",
          "type": "address"
        },
        {
          "internalType": "uint256",
          "name": "index",
          "type": "uint256"
        }
      ],
      "name": "tokenOfOwnerByIndex",
      "outputs": [
        {
          "internalType": "uint256",
          "name": "",
          "type": "uint256"
        }
      ],
      "stateMutability": "view",
      "type": "function"
    },
    {
      "inputs": [
        {
          "internalType": "uint256",
          "name": "_tokenId",
          "type": "uint256"
        }
      ],
      "name": "tokenURI",
      "outputs": [
        {
          "internalType": "string",
          "name": "",
          "type": "string"
        }
      ],
      "stateMutability": "view",
      "type": "function"
    },
    {
      "inputs": [],
      "name": "totalSupply",
      "outputs": [
        {
          "internalType": "uint256",
          "name": "",
          "type": "uint256"
        }
      ],
      "stateMutability": "view",
      "type": "function"
    },
    {
      "inputs": [
        {
          "internalType": "address",
          "name": "from",
          "type": "address"
        },
        {
          "internalType": "address",
          "name": "to",
          "type": "address"
        },
        {
          "internalType": "uint256",
          "name": "tokenId",
          "type": "uint256"
        }
      ],
      "name": "transferFrom",
      "outputs": [],
      "stateMutability": "nonpayable",
      "type": "function"
    },
    {
      "inputs": [
        {
          "internalType": "address",
          "name": "newOwner",
          "type": "address"
        }
      ],
      "name": "transferOwnership",
      "outputs": [],
      "stateMutability": "nonpayable",
      "type": "function"
    }
  ],
  "bytecode": "0x60a06040526000805560006006553480156200001a57600080fd5b506040516200353d3803806200353d8339810160408190526200003d916200029e565b6040518060400160405280600981526020016850657065446f6f647360b81b815250604051806040016040528060048152602001635045504560e01b815250601460008111620000e65760405162461bcd60e51b815260206004820152602a60248201527f4552433732314c6974653a206d61782062617463682073697a65206d757374206044820152696265206e6f6e7a65726f60b01b606482015260840160405180910390fd5b8251620000fb906001906020860190620001db565b50815162000111906002906020850190620001db565b5060805250506008805460ff1916600117905562000136620001303390565b62000189565b600b805460ff60a01b191690556001600c5582516200015d90600d906020860190620001db565b50600f80546001600160a01b0319166001600160a01b039390931692909217909155600e5550620003eb565b600b80546001600160a01b038381166001600160a01b0319831681179093556040519116919082907f8be0079c531659141344cd1fd0a4f28419497f9722a3daafe3b4186f6b6457e090600090a35050565b828054620001e99062000398565b90600052602060002090601f0160209004810192826200020d576000855562000258565b82601f106200022857805160ff191683800117855562000258565b8280016001018555821562000258579182015b82811115620002585782518255916020019190600101906200023b565b50620002669291506200026a565b5090565b5b808211156200026657600081556001016200026b565b80516001600160a01b03811681146200029957600080fd5b919050565b600080600060608486031215620002b457600080fd5b83516001600160401b0380821115620002cc57600080fd5b818601915086601f830112620002e157600080fd5b815181811115620002f657620002f6620003d5565b604051601f8201601f19908116603f01168101908382118183101715620003215762000321620003d5565b816040528281526020935089848487010111156200033e57600080fd5b600091505b8282101562000362578482018401518183018501529083019062000343565b82821115620003745760008484830101525b96506200038691505086820162000281565b93505050604084015190509250925092565b600181811c90821680620003ad57607f821691505b60208210811415620003cf57634e487b7160e01b600052602260045260246000fd5b50919050565b634e487b7160e01b600052604160045260246000fd5b6080516131286200041560003960008181611c4301528181611c6d01526125fd01526131286000f3fe6080604052600436106102bb5760003560e01c80638ba4cc3c1161016e578063bedb86fb116100cb578063d7224ba01161007f578063e985e9c511610064578063e985e9c514610751578063f2fde38b1461079a578063f7260d3e146107ba57600080fd5b8063d7224ba01461071b578063e0df5b6f1461073157600080fd5b8063c884ef83116100b0578063c884ef83146106b9578063cf1c73b2146106e6578063d547cfb71461070657600080fd5b8063bedb86fb14610679578063c87b56dd1461069957600080fd5b8063a22cb46511610122578063b1ab931711610107578063b1ab931714610619578063b88d4fde14610646578063ba41b0c61461066657600080fd5b8063a22cb465146105e3578063aedb43ef1461060357600080fd5b806391b7f5ed1161015357806391b7f5ed1461059857806395d89b41146105b8578063a035b1fe146105cd57600080fd5b80638ba4cc3c1461055a5780638da5cb5b1461057a57600080fd5b80634e71d92d1161021c57806370a08231116101d0578063718da7ee116101b5578063718da7ee146104fa5780637fac20941461051a578063845c243d1461053a57600080fd5b806370a08231146104c5578063715018a6146104e557600080fd5b806355d26f641161020157806355d26f64146104555780635c975abb146104755780636352211e146104a557600080fd5b80634e71d92d146104205780634f6ccce71461043557600080fd5b806318160ddd116102735780632b47da52116102585780632b47da52146103ca5780632f745c59146103e057806342842e0e1461040057600080fd5b806318160ddd1461038b57806323b872dd146103aa57600080fd5b8063081812fc116102a4578063081812fc14610317578063095ea7b31461034f5780630c9a94d21461037157600080fd5b806301ffc9a7146102c057806306fdde03146102f5575b600080fd5b3480156102cc57600080fd5b506102e06102db366004612b53565b6107da565b60405190151581526020015b60405180910390f35b34801561030157600080fd5b5061030a61090b565b6040516102ec9190612e5e565b34801561032357600080fd5b50610337610332366004612b3a565b61099d565b6040516001600160a01b0390911681526020016102ec565b34801561035b57600080fd5b5061036f61036a366004612a9c565b610a3d565b005b34801561037d57600080fd5b506008546102e09060ff1681565b34801561039757600080fd5b506000545b6040519081526020016102ec565b3480156103b657600080fd5b5061036f6103c5366004612928565b610b70565b3480156103d657600080fd5b5061039c60095481565b3480156103ec57600080fd5b5061039c6103fb366004612a9c565b610b7b565b34801561040c57600080fd5b5061036f61041b366004612928565b610cea565b34801561042c57600080fd5b5061036f610d05565b34801561044157600080fd5b5061039c610450366004612b3a565b610df3565b34801561046157600080fd5b506102e0610470366004612ac8565b610e6f565b34801561048157600080fd5b50600b5474010000000000000000000000000000000000000000900460ff166102e0565b3480156104b157600080fd5b506103376104c0366004612b3a565b610f08565b3480156104d157600080fd5b5061039c6104e03660046128cb565b610f13565b3480156104f157600080fd5b5061036f610fe4565b34801561050657600080fd5b5061036f6105153660046128cb565b61104a565b34801561052657600080fd5b506102e0610535366004612ac8565b6110de565b34801561054657600080fd5b5061036f610555366004612b3a565b600a55565b34801561056657600080fd5b5061036f610575366004612a9c565b61116e565b34801561058657600080fd5b50600b546001600160a01b0316610337565b3480156105a457600080fd5b5061036f6105b3366004612b3a565b611244565b3480156105c457600080fd5b5061030a6112a3565b3480156105d957600080fd5b5061039c600e5481565b3480156105ef57600080fd5b5061036f6105fe366004612a67565b6112b2565b34801561060f57600080fd5b5061039c600a5481565b34801561062557600080fd5b506106396106343660046128cb565b611395565b6040516102ec9190612e1a565b34801561065257600080fd5b5061036f610661366004612969565b611437565b61036f610674366004612bff565b6114c6565b34801561068557600080fd5b5061036f610694366004612b1f565b611672565b3480156106a557600080fd5b5061030a6106b4366004612b3a565b6116e2565b3480156106c557600080fd5b5061039c6106d43660046128cb565b60076020526000908152604090205481565b3480156106f257600080fd5b5061036f610701366004612b3a565b600955565b34801561071257600080fd5b5061030a611716565b34801561072757600080fd5b5061039c60065481565b34801561073d57600080fd5b5061036f61074c366004612b8d565b611725565b34801561075d57600080fd5b506102e061076c3660046128ef565b6001600160a01b03918216600090815260056020908152604080832093909416825291909152205460ff1690565b3480156107a657600080fd5b5061036f6107b53660046128cb565b61178b565b3480156107c657600080fd5b50600f54610337906001600160a01b031681565b60007fffffffff0000000000000000000000000000000000000000000000000000000082167f80ac58cd00000000000000000000000000000000000000000000000000000000148061086d57507fffffffff0000000000000000000000000000000000000000000000000000000082167f5b5e139f00000000000000000000000000000000000000000000000000000000145b806108b957507fffffffff0000000000000000000000000000000000000000000000000000000082167f780e9d6300000000000000000000000000000000000000000000000000000000145b8061090557507f01ffc9a7000000000000000000000000000000000000000000000000000000007fffffffff000000000000000000000000000000000000000000000000000000008316145b92915050565b60606001805461091a90612f52565b80601f016020809104026020016040519081016040528092919081815260200182805461094690612f52565b80156109935780601f1061096857610100808354040283529160200191610993565b820191906000526020600020905b81548152906001019060200180831161097657829003601f168201915b5050505050905090565b60006109aa826000541190565b610a215760405162461bcd60e51b815260206004820152603060248201527f4552433732314c6974653a20617070726f76656420717565727920666f72206e60448201527f6f6e6578697374656e7420746f6b656e0000000000000000000000000000000060648201526084015b60405180910390fd5b506000908152600460205260409020546001600160a01b031690565b6000610a4882610f08565b9050806001600160a01b0316836001600160a01b03161415610ad25760405162461bcd60e51b815260206004820152602560248201527f4552433732314c6974653a20617070726f76616c20746f2063757272656e742060448201527f6f776e65720000000000000000000000000000000000000000000000000000006064820152608401610a18565b336001600160a01b0382161480610aee5750610aee813361076c565b610b605760405162461bcd60e51b815260206004820152603c60248201527f4552433732314c6974653a20617070726f76652063616c6c6572206973206e6f60448201527f74206f776e6572206e6f7220617070726f76656420666f7220616c6c000000006064820152608401610a18565b610b6b83838361186a565b505050565b610b6b8383836118de565b6000610b8683610f13565b8210610bfa5760405162461bcd60e51b815260206004820152602560248201527f4552433732314c6974653a206f776e657220696e646578206f7574206f66206260448201527f6f756e64730000000000000000000000000000000000000000000000000000006064820152608401610a18565b600080549080805b83811015610c7b576000818152600360205260409020546001600160a01b03168015610c2c578092505b876001600160a01b0316836001600160a01b03161415610c685786841415610c5a5750935061090592505050565b83610c6481612fa6565b9450505b5080610c7381612fa6565b915050610c02565b5060405162461bcd60e51b815260206004820152603160248201527f4552433732314c6974653a20756e61626c6520746f2067657420746f6b656e2060448201527f6f66206f776e657220627920696e6465780000000000000000000000000000006064820152608401610a18565b610b6b83838360405180602001604052806000815250611437565b600b546001600160a01b03163314610d5f5760405162461bcd60e51b815260206004820181905260248201527f4f776e61626c653a2063616c6c6572206973206e6f7420746865206f776e65726044820152606401610a18565b600f546001600160a01b0316610db75760405162461bcd60e51b815260206004820152601060248201527f7265636569766572206e6f7420736574000000000000000000000000000000006044820152606401610a18565b600f546040516001600160a01b03909116904780156108fc02916000818181858888f19350505050158015610df0573d6000803e3d6000fd5b50565b600080548210610e6b5760405162461bcd60e51b815260206004820152602660248201527f4552433732314c6974653a20676c6f62616c20696e646578206f7574206f662060448201527f626f756e647300000000000000000000000000000000000000000000000000006064820152608401610a18565b5090565b6040517fffffffffffffffffffffffffffffffffffffffff000000000000000000000000606083901b1660208201526000908190603401604051602081830303815290604052805190602001209050610eff85858080602002602001604051908101604052809392919081815260200183836020028082843760009201919091525050600a549150849050611baa565b95945050505050565b600061090582611bc0565b60006001600160a01b038216610f915760405162461bcd60e51b815260206004820152602e60248201527f4552433732314c6974653a2062616c616e636520717565727920666f7220746860448201527f65207a65726f20616464726573730000000000000000000000000000000000006064820152608401610a18565b6000805b600054811015610fdd57610fa881611bc0565b6001600160a01b0316846001600160a01b03161415610fcd57610fca82612fa6565b91505b610fd681612fa6565b9050610f95565b5092915050565b600b546001600160a01b0316331461103e5760405162461bcd60e51b815260206004820181905260248201527f4f776e61626c653a2063616c6c6572206973206e6f7420746865206f776e65726044820152606401610a18565b6110486000611d51565b565b600b546001600160a01b031633146110a45760405162461bcd60e51b815260206004820181905260248201527f4f776e61626c653a2063616c6c6572206973206e6f7420746865206f776e65726044820152606401610a18565b600f80547fffffffffffffffffffffffff0000000000000000000000000000000000000000166001600160a01b0392909216919091179055565b6040517fffffffffffffffffffffffffffffffffffffffff000000000000000000000000606083901b1660208201526000908190603401604051602081830303815290604052805190602001209050610eff858580806020026020016040519081016040528093929190818152602001838360200280828437600092019190915250506009549150849050611baa565b600b546001600160a01b031633146111c85760405162461bcd60e51b815260206004820181905260248201527f4f776e61626c653a2063616c6c6572206973206e6f7420746865206f776e65726044820152606401610a18565b6111d56113886001612e71565b816111df60005490565b6111e99190612e71565b106112365760405162461bcd60e51b815260206004820152601160248201527f657863656564206d617820737570706c790000000000000000000000000000006044820152606401610a18565b6112408282611dbb565b5050565b600b546001600160a01b0316331461129e5760405162461bcd60e51b815260206004820181905260248201527f4f776e61626c653a2063616c6c6572206973206e6f7420746865206f776e65726044820152606401610a18565b600e55565b60606002805461091a90612f52565b6001600160a01b03821633141561130b5760405162461bcd60e51b815260206004820152601d60248201527f4552433732314c6974653a20617070726f766520746f2063616c6c65720000006044820152606401610a18565b3360008181526005602090815260408083206001600160a01b0387168085529083529281902080547fffffffffffffffffffffffffffffffffffffffffffffffffffffffffffffff001686151590811790915590519081529192917f17307eab39ab6107e8899845ad3d59bd9653f200f220920489ca2b5937696c31910160405180910390a35050565b606060006113a283610f13565b905060008167ffffffffffffffff8111156113bf576113bf613080565b6040519080825280602002602001820160405280156113e8578160200160208202803683370190505b50905060005b8281101561142f576114008582610b7b565b82828151811061141257611412613051565b60209081029190910101528061142781612fa6565b9150506113ee565b509392505050565b6114428484846118de565b61144e84848484611dd5565b6114c05760405162461bcd60e51b815260206004820152603660248201527f4552433732314c6974653a207472616e7366657220746f206e6f6e204552433760448201527f3231526563656976657220696d706c656d656e746572000000000000000000006064820152608401610a18565b50505050565b600b5474010000000000000000000000000000000000000000900460ff16156115315760405162461bcd60e51b815260206004820152601060248201527f5061757361626c653a20706175736564000000000000000000000000000000006044820152606401610a18565b6002600c5414156115845760405162461bcd60e51b815260206004820152601f60248201527f5265656e7472616e637947756172643a207265656e7472616e742063616c6c006044820152606401610a18565b6002600c55826115d65760405162461bcd60e51b815260206004820152601160248201527f616d6f756e7420746f6f206c6974746c650000000000000000000000000000006044820152606401610a18565b6115e36113886001612e71565b836115ed60005490565b6115f79190612e71565b106116445760405162461bcd60e51b815260206004820152601160248201527f657863656564206d617820737570706c790000000000000000000000000000006044820152606401610a18565b60085460ff161561165f5761165a838383611fa1565b611668565b611668836120e7565b50506001600c5550565b600b546001600160a01b031633146116cc5760405162461bcd60e51b815260206004820181905260248201527f4f776e61626c653a2063616c6c6572206973206e6f7420746865206f776e65726044820152606401610a18565b80156116da57610df06121a7565b610df0612296565b6060600d6116ef8361234f565b604051602001611700929190612cb1565b6040516020818303038152906040529050919050565b6060600d805461091a90612f52565b600b546001600160a01b0316331461177f5760405162461bcd60e51b815260206004820181905260248201527f4f776e61626c653a2063616c6c6572206973206e6f7420746865206f776e65726044820152606401610a18565b610b6b600d83836127bc565b600b546001600160a01b031633146117e55760405162461bcd60e51b815260206004820181905260248201527f4f776e61626c653a2063616c6c6572206973206e6f7420746865206f776e65726044820152606401610a18565b6001600160a01b0381166118615760405162461bcd60e51b815260206004820152602660248201527f4f776e61626c653a206e6577206f776e657220697320746865207a65726f206160448201527f64647265737300000000000000000000000000000000000000000000000000006064820152608401610a18565b610df081611d51565b60008281526004602052604080822080547fffffffffffffffffffffffff0000000000000000000000000000000000000000166001600160a01b0387811691821790925591518593918516917f8c5be1e5ebec7d5bd14f71427d1e84f3dd0314c0f7b2291e5b200ac8c7c3b92591a4505050565b60006118e982611bc0565b90506000336001600160a01b03831614806119145750336119098461099d565b6001600160a01b0316145b806119245750611924823361076c565b9050806119995760405162461bcd60e51b815260206004820152603560248201527f4552433732314c6974653a207472616e736665722063616c6c6572206973206e60448201527f6f74206f776e6572206e6f7220617070726f76656400000000000000000000006064820152608401610a18565b846001600160a01b0316826001600160a01b031614611a205760405162461bcd60e51b815260206004820152602960248201527f4552433732314c6974653a207472616e736665722066726f6d20696e636f727260448201527f656374206f776e657200000000000000000000000000000000000000000000006064820152608401610a18565b6001600160a01b038416611a9c5760405162461bcd60e51b815260206004820152602860248201527f4552433732314c6974653a207472616e7366657220746f20746865207a65726f60448201527f20616464726573730000000000000000000000000000000000000000000000006064820152608401610a18565b611aa86000848461186a565b600083815260036020526040812080547fffffffffffffffffffffffff0000000000000000000000000000000000000000166001600160a01b038716179055611af2846001612e71565b6000818152600360205260409020549091506001600160a01b0316611b6157611b1c816000541190565b15611b6157600081815260036020526040902080547fffffffffffffffffffffffff0000000000000000000000000000000000000000166001600160a01b0385161790555b83856001600160a01b0316876001600160a01b03167fddf252ad1be2c89b69c2b068fc378daa952ba7f163c4a11628f55a4df523b3ef60405160405180910390a4505050505050565b600082611bb78584612481565b14949350505050565b6000611bcd826000541190565b611c3f5760405162461bcd60e51b815260206004820152602d60248201527f4552433732314c6974653a206f776e657220717565727920666f72206e6f6e6560448201527f78697374656e7420746f6b656e000000000000000000000000000000000000006064820152608401610a18565b60007f00000000000000000000000000000000000000000000000000000000000000008310611ca057611c927f000000000000000000000000000000000000000000000000000000000000000084612eda565b611c9d906001612e71565b90505b825b818110611ce2576000818152600360205260409020546001600160a01b03168015611ccf57949350505050565b5080611cda81612f1d565b915050611ca2565b5060405162461bcd60e51b815260206004820152603260248201527f4552433732314c6974653a20756e61626c6520746f2064657465726d696e652060448201527f746865206f776e6572206f6620746f6b656e00000000000000000000000000006064820152608401610a18565b600b80546001600160a01b038381167fffffffffffffffffffffffff0000000000000000000000000000000000000000831681179093556040519116919082907f8be0079c531659141344cd1fd0a4f28419497f9722a3daafe3b4186f6b6457e090600090a35050565b611240828260405180602001604052806000815250612525565b60006001600160a01b0384163b15611f95576040517f150b7a020000000000000000000000000000000000000000000000000000000081526001600160a01b0385169063150b7a0290611e32903390899088908890600401612dde565b602060405180830381600087803b158015611e4c57600080fd5b505af1925050508015611e9a575060408051601f3d9081017fffffffffffffffffffffffffffffffffffffffffffffffffffffffffffffffe0168201909252611e9791810190612b70565b60015b611f4a573d808015611ec8576040519150601f19603f3d011682016040523d82523d6000602084013e611ecd565b606091505b508051611f425760405162461bcd60e51b815260206004820152603660248201527f4552433732314c6974653a207472616e7366657220746f206e6f6e204552433760448201527f3231526563656976657220696d706c656d656e746572000000000000000000006064820152608401610a18565b805181602001fd5b7fffffffff00000000000000000000000000000000000000000000000000000000167f150b7a0200000000000000000000000000000000000000000000000000000000149050611f99565b5060015b949350505050565b60038310611ff15760405162461bcd60e51b815260206004820152601560248201527f616d6f756e742063616e277420657863656564203200000000000000000000006044820152606401610a18565b600283600e546120019190612e9d565b61200b9190612e89565b34146120595760405162461bcd60e51b815260206004820152601160248201527f696e73756666696369656e742066756e640000000000000000000000000000006044820152606401610a18565b336000908152600760205260409020546002116120b85760405162461bcd60e51b815260206004820152601d60248201527f65786365656465642077686974656c697374206d696e742071756f74610000006044820152606401610a18565b33600090815260076020526040812080548592906120d7908490612e71565b90915550610b6b90503384611dbb565b6120f360146001612e71565b81106121415760405162461bcd60e51b815260206004820152601660248201527f616d6f756e742063616e277420657863656564203230000000000000000000006044820152606401610a18565b80600e5461214f9190612e9d565b341461219d5760405162461bcd60e51b815260206004820152601160248201527f696e73756666696369656e742066756e640000000000000000000000000000006044820152606401610a18565b610df03382611dbb565b600b5474010000000000000000000000000000000000000000900460ff16156122125760405162461bcd60e51b815260206004820152601060248201527f5061757361626c653a20706175736564000000000000000000000000000000006044820152606401610a18565b600b80547fffffffffffffffffffffff00ffffffffffffffffffffffffffffffffffffffff16740100000000000000000000000000000000000000001790557f62e78cea01bee320cd4e420270b5ea74000d11b0c9f74754ebdbfc544b05a2586122793390565b6040516001600160a01b03909116815260200160405180910390a1565b600b5474010000000000000000000000000000000000000000900460ff166123005760405162461bcd60e51b815260206004820152601460248201527f5061757361626c653a206e6f74207061757365640000000000000000000000006044820152606401610a18565b600b80547fffffffffffffffffffffff00ffffffffffffffffffffffffffffffffffffffff1690557f5db9ee0a495bf2e6ff9c91a7834c1ba4fdd244a5e8aa4e537bd38aeae4b073aa33612279565b60608161238f57505060408051808201909152600181527f3000000000000000000000000000000000000000000000000000000000000000602082015290565b8160005b81156123b957806123a381612fa6565b91506123b29050600a83612e89565b9150612393565b60008167ffffffffffffffff8111156123d4576123d4613080565b6040519080825280601f01601f1916602001820160405280156123fe576020820181803683370190505b5090505b8415611f9957612413600183612eda565b9150612420600a86612fdf565b61242b906030612e71565b60f81b81838151811061244057612440613051565b60200101907effffffffffffffffffffffffffffffffffffffffffffffffffffffffffffff1916908160001a90535061247a600a86612e89565b9450612402565b600081815b845181101561142f5760008582815181106124a3576124a3613051565b602002602001015190508083116124e5576040805160208101859052908101829052606001604051602081830303815290604052805190602001209250612512565b60408051602081018390529081018490526060016040516020818303038152906040528051906020012092505b508061251d81612fa6565b915050612486565b6000546001600160a01b0384166125a35760405162461bcd60e51b8152602060048201526024808201527f4552433732314c6974653a206d696e7420746f20746865207a65726f2061646460448201527f72657373000000000000000000000000000000000000000000000000000000006064820152608401610a18565b6125ae816000541190565b156125fb5760405162461bcd60e51b815260206004820181905260248201527f4552433732314c6974653a20746f6b656e20616c7265616479206d696e7465646044820152606401610a18565b7f00000000000000000000000000000000000000000000000000000000000000008311156126915760405162461bcd60e51b815260206004820152602560248201527f4552433732314c6974653a207175616e7469747920746f206d696e7420746f6f60448201527f20686967680000000000000000000000000000000000000000000000000000006064820152608401610a18565b600081815260036020526040812080547fffffffffffffffffffffffff0000000000000000000000000000000000000000166001600160a01b03871617905581905b848110156127b25760405182906001600160a01b038816906000907fddf252ad1be2c89b69c2b068fc378daa952ba7f163c4a11628f55a4df523b3ef908290a46127206000878487611dd5565b6127925760405162461bcd60e51b815260206004820152603660248201527f4552433732314c6974653a207472616e7366657220746f206e6f6e204552433760448201527f3231526563656976657220696d706c656d656e746572000000000000000000006064820152608401610a18565b8161279c81612fa6565b92505080806127aa90612fa6565b9150506126d3565b5060005550505050565b8280546127c890612f52565b90600052602060002090601f0160209004810192826127ea576000855561284e565b82601f10612821578280017fffffffffffffffffffffffffffffffffffffffffffffffffffffffffffffff0082351617855561284e565b8280016001018555821561284e579182015b8281111561284e578235825591602001919060010190612833565b50610e6b9291505b80821115610e6b5760008155600101612856565b60008083601f84011261287c57600080fd5b50813567ffffffffffffffff81111561289457600080fd5b6020830191508360208260051b85010111156128af57600080fd5b9250929050565b803580151581146128c657600080fd5b919050565b6000602082840312156128dd57600080fd5b81356128e8816130af565b9392505050565b6000806040838503121561290257600080fd5b823561290d816130af565b9150602083013561291d816130af565b809150509250929050565b60008060006060848603121561293d57600080fd5b8335612948816130af565b92506020840135612958816130af565b929592945050506040919091013590565b6000806000806080858703121561297f57600080fd5b843561298a816130af565b9350602085013561299a816130af565b925060408501359150606085013567ffffffffffffffff808211156129be57600080fd5b818701915087601f8301126129d257600080fd5b8135818111156129e4576129e4613080565b604051601f82017fffffffffffffffffffffffffffffffffffffffffffffffffffffffffffffffe0908116603f01168101908382118183101715612a2a57612a2a613080565b816040528281528a6020848701011115612a4357600080fd5b82602086016020830137600060208483010152809550505050505092959194509250565b60008060408385031215612a7a57600080fd5b8235612a85816130af565b9150612a93602084016128b6565b90509250929050565b60008060408385031215612aaf57600080fd5b8235612aba816130af565b946020939093013593505050565b600080600060408486031215612add57600080fd5b833567ffffffffffffffff811115612af457600080fd5b612b008682870161286a565b9094509250506020840135612b14816130af565b809150509250925092565b600060208284031215612b3157600080fd5b6128e8826128b6565b600060208284031215612b4c57600080fd5b5035919050565b600060208284031215612b6557600080fd5b81356128e8816130c4565b600060208284031215612b8257600080fd5b81516128e8816130c4565b60008060208385031215612ba057600080fd5b823567ffffffffffffffff80821115612bb857600080fd5b818501915085601f830112612bcc57600080fd5b813581811115612bdb57600080fd5b866020828501011115612bed57600080fd5b60209290920196919550909350505050565b600080600060408486031215612c1457600080fd5b83359250602084013567ffffffffffffffff811115612c3257600080fd5b612c3e8682870161286a565b9497909650939450505050565b60008151808452612c63816020860160208601612ef1565b601f017fffffffffffffffffffffffffffffffffffffffffffffffffffffffffffffffe0169290920160200192915050565b60008151612ca7818560208601612ef1565b9290920192915050565b600080845481600182811c915080831680612ccd57607f831692505b6020808410821415612d06577f4e487b710000000000000000000000000000000000000000000000000000000086526022600452602486fd5b818015612d1a5760018114612d4957612d76565b7fffffffffffffffffffffffffffffffffffffffffffffffffffffffffffffff00861689528489019650612d76565b60008b81526020902060005b86811015612d6e5781548b820152908501908301612d55565b505084890196505b505050505050610eff612db5612daf837f2f00000000000000000000000000000000000000000000000000000000000000815260010190565b86612c95565b7f2e6a736f6e000000000000000000000000000000000000000000000000000000815260050190565b60006001600160a01b03808716835280861660208401525083604083015260806060830152612e106080830184612c4b565b9695505050505050565b6020808252825182820181905260009190848201906040850190845b81811015612e5257835183529284019291840191600101612e36565b50909695505050505050565b6020815260006128e86020830184612c4b565b60008219821115612e8457612e84612ff3565b500190565b600082612e9857612e98613022565b500490565b6000817fffffffffffffffffffffffffffffffffffffffffffffffffffffffffffffffff0483118215151615612ed557612ed5612ff3565b500290565b600082821015612eec57612eec612ff3565b500390565b60005b83811015612f0c578181015183820152602001612ef4565b838111156114c05750506000910152565b600081612f2c57612f2c612ff3565b507fffffffffffffffffffffffffffffffffffffffffffffffffffffffffffffffff0190565b600181811c90821680612f6657607f821691505b60208210811415612fa0577f4e487b7100000000000000000000000000000000000000000000000000000000600052602260045260246000fd5b50919050565b60007fffffffffffffffffffffffffffffffffffffffffffffffffffffffffffffffff821415612fd857612fd8612ff3565b5060010190565b600082612fee57612fee613022565b500690565b7f4e487b7100000000000000000000000000000000000000000000000000000000600052601160045260246000fd5b7f4e487b7100000000000000000000000000000000000000000000000000000000600052601260045260246000fd5b7f4e487b7100000000000000000000000000000000000000000000000000000000600052603260045260246000fd5b7f4e487b7100000000000000000000000000000000000000000000000000000000600052604160045260246000fd5b6001600160a01b0381168114610df057600080fd5b7fffffffff0000000000000000000000000000000000000000000000000000000081168114610df057600080fdfea264697066735822122032976ed8de7b7d739bbef636e88a057a02bd521432f293feee225d6b78e010cf64736f6c63430008070033",
  "linkReferences": {},
  "deployedLinkReferences": {}
}